{
    "contractName": "EtherToQHT",
    "abi": [
        {
            "inputs": [
                {
                    "internalType": "address",
                    "name": "initialOwner",
                    "type": "address"
                }
            ],
            "stateMutability": "payable",
            "type": "constructor"
        },
        {
            "inputs": [
                {
                    "internalType": "address",
                    "name": "owner",
                    "type": "address"
                }
            ],
            "name": "OwnableInvalidOwner",
            "type": "error"
        },
        {
            "inputs": [
                {
                    "internalType": "address",
                    "name": "account",
                    "type": "address"
                }
            ],
            "name": "OwnableUnauthorizedAccount",
            "type": "error"
        },
        {
            "anonymous": false,
            "inputs": [
                {
                    "indexed": true,
                    "internalType": "address",
                    "name": "previousOwner",
                    "type": "address"
                },
                {
                    "indexed": true,
                    "internalType": "address",
                    "name": "newOwner",
                    "type": "address"
                }
            ],
            "name": "OwnershipTransferred",
            "type": "event"
        },
        {
            "inputs": [],
            "name": "_tokenPrice",
            "outputs": [
                {
                    "internalType": "uint256",
                    "name": "",
                    "type": "uint256"
                }
            ],
            "stateMutability": "view",
            "type": "function"
        },
        {
            "inputs": [],
            "name": "owner",
            "outputs": [
                {
                    "internalType": "address",
                    "name": "",
                    "type": "address"
                }
            ],
            "stateMutability": "view",
            "type": "function"
        },
        {
            "inputs": [],
            "name": "renounceOwnership",
            "outputs": [],
            "stateMutability": "nonpayable",
            "type": "function"
        },
        {
            "inputs": [
                {
                    "internalType": "address",
                    "name": "newOwner",
                    "type": "address"
                }
            ],
            "name": "transferOwnership",
            "outputs": [],
            "stateMutability": "nonpayable",
            "type": "function"
        },
        {
            "inputs": [
                {
                    "internalType": "address",
                    "name": "_tokenAddress",
                    "type": "address"
                }
            ],
            "name": "setERC20Contract",
            "outputs": [],
            "stateMutability": "nonpayable",
            "type": "function"
        },
        {
            "inputs": [
                {
                    "internalType": "uint256",
                    "name": "_price",
                    "type": "uint256"
                }
            ],
            "name": "setERC20Price",
            "outputs": [],
            "stateMutability": "nonpayable",
            "type": "function"
        },
        {
            "inputs": [
                {
                    "internalType": "address payable",
                    "name": "_teamWallet",
                    "type": "address"
                }
            ],
            "name": "setTeamWallet",
            "outputs": [],
            "stateMutability": "nonpayable",
            "type": "function"
        },
        {
            "inputs": [
                {
                    "internalType": "uint256",
                    "name": "_amount",
                    "type": "uint256"
                }
            ],
            "name": "etherToERC20",
            "outputs": [],
            "stateMutability": "payable",
            "type": "function"
        }
    ],
    "bytecode": "0x608060405260405162000cd338038062000cd38339818101604052810190620000299190620001e6565b80600073ffffffffffffffffffffffffffffffffffffffff168173ffffffffffffffffffffffffffffffffffffffff16036200009f5760006040517f1e4fbdf700000000000000000000000000000000000000000000000000000000815260040162000096919062000229565b60405180910390fd5b620000b081620000b860201b60201c565b505062000246565b60008060009054906101000a900473ffffffffffffffffffffffffffffffffffffffff169050816000806101000a81548173ffffffffffffffffffffffffffffffffffffffff021916908373ffffffffffffffffffffffffffffffffffffffff1602179055508173ffffffffffffffffffffffffffffffffffffffff168173ffffffffffffffffffffffffffffffffffffffff167f8be0079c531659141344cd1fd0a4f28419497f9722a3daafe3b4186f6b6457e060405160405180910390a35050565b600080fd5b600073ffffffffffffffffffffffffffffffffffffffff82169050919050565b6000620001ae8262000181565b9050919050565b620001c081620001a1565b8114620001cc57600080fd5b50565b600081519050620001e081620001b5565b92915050565b600060208284031215620001ff57620001fe6200017c565b5b60006200020f84828501620001cf565b91505092915050565b6200022381620001a1565b82525050565b600060208201905062000240600083018462000218565b92915050565b610a7d80620002566000396000f3fe60806040526004361061007b5760003560e01c80638da5cb5b1161004e5780638da5cb5b14610114578063cac8d5381461013f578063f2fde38b14610168578063f97706eb146101915761007b565b80631525ff7d146100805780633b971f9f146100a9578063715018a6146100d45780637617ebdd146100eb575b600080fd5b34801561008c57600080fd5b506100a760048036038101906100a29190610709565b6101ad565b005b3480156100b557600080fd5b506100be6101f9565b6040516100cb919061074f565b60405180910390f35b3480156100e057600080fd5b506100e96101ff565b005b3480156100f757600080fd5b50610112600480360381019061010d9190610796565b610213565b005b34801561012057600080fd5b50610129610225565b60405161013691906107e4565b60405180910390f35b34801561014b57600080fd5b506101666004803603810190610161919061082b565b61024e565b005b34801561017457600080fd5b5061018f600480360381019061018a919061082b565b61029a565b005b6101ab60048036038101906101a69190610796565b610320565b005b6101b5610553565b80600360006101000a81548173ffffffffffffffffffffffffffffffffffffffff021916908373ffffffffffffffffffffffffffffffffffffffff16021790555050565b60025481565b610207610553565b61021160006105da565b565b61021b610553565b8060028190555050565b60008060009054906101000a900473ffffffffffffffffffffffffffffffffffffffff16905090565b610256610553565b80600160006101000a81548173ffffffffffffffffffffffffffffffffffffffff021916908373ffffffffffffffffffffffffffffffffffffffff16021790555050565b6102a2610553565b600073ffffffffffffffffffffffffffffffffffffffff168173ffffffffffffffffffffffffffffffffffffffff16036103145760006040517f1e4fbdf700000000000000000000000000000000000000000000000000000000815260040161030b91906107e4565b60405180910390fd5b61031d816105da565b50565b600073ffffffffffffffffffffffffffffffffffffffff16600160009054906101000a900473ffffffffffffffffffffffffffffffffffffffff1673ffffffffffffffffffffffffffffffffffffffff16036103b1576040517f08c379a00000000000000000000000000000000000000000000000000000000081526004016103a8906108b5565b60405180910390fd5b6000600254036103f6576040517f08c379a00000000000000000000000000000000000000000000000000000000081526004016103ed90610921565b60405180910390fd5b600254816104049190610970565b3414610445576040517f08c379a000000000000000000000000000000000000000000000000000000000815260040161043c906109fe565b60405180910390fd5b600360009054906101000a900473ffffffffffffffffffffffffffffffffffffffff1673ffffffffffffffffffffffffffffffffffffffff166108fc349081150290604051600060405180830381858888f193505050501580156104ad573d6000803e3d6000fd5b50600160009054906101000a900473ffffffffffffffffffffffffffffffffffffffff1673ffffffffffffffffffffffffffffffffffffffff166340c10f1933670de0b6b3a7640000846105019190610970565b6040518363ffffffff1660e01b815260040161051e929190610a1e565b600060405180830381600087803b15801561053857600080fd5b505af115801561054c573d6000803e3d6000fd5b5050505050565b61055b61069e565b73ffffffffffffffffffffffffffffffffffffffff16610579610225565b73ffffffffffffffffffffffffffffffffffffffff16146105d85761059c61069e565b6040517f118cdaa70000000000000000000000000000000000000000000000000000000081526004016105cf91906107e4565b60405180910390fd5b565b60008060009054906101000a900473ffffffffffffffffffffffffffffffffffffffff169050816000806101000a81548173ffffffffffffffffffffffffffffffffffffffff021916908373ffffffffffffffffffffffffffffffffffffffff1602179055508173ffffffffffffffffffffffffffffffffffffffff168173ffffffffffffffffffffffffffffffffffffffff167f8be0079c531659141344cd1fd0a4f28419497f9722a3daafe3b4186f6b6457e060405160405180910390a35050565b600033905090565b600080fd5b600073ffffffffffffffffffffffffffffffffffffffff82169050919050565b60006106d6826106ab565b9050919050565b6106e6816106cb565b81146106f157600080fd5b50565b600081359050610703816106dd565b92915050565b60006020828403121561071f5761071e6106a6565b5b600061072d848285016106f4565b91505092915050565b6000819050919050565b61074981610736565b82525050565b60006020820190506107646000830184610740565b92915050565b61077381610736565b811461077e57600080fd5b50565b6000813590506107908161076a565b92915050565b6000602082840312156107ac576107ab6106a6565b5b60006107ba84828501610781565b91505092915050565b60006107ce826106ab565b9050919050565b6107de816107c3565b82525050565b60006020820190506107f960008301846107d5565b92915050565b610808816107c3565b811461081357600080fd5b50565b600081359050610825816107ff565b92915050565b600060208284031215610841576108406106a6565b5b600061084f84828501610816565b91505092915050565b600082825260208201905092915050565b7f657263323020636f6e7472616374206572726f722e0000000000000000000000600082015250565b600061089f601583610858565b91506108aa82610869565b602082019050919050565b600060208201905081810360008301526108ce81610892565b9050919050565b7f746f6b656e207072696365206572726f722e0000000000000000000000000000600082015250565b600061090b601283610858565b9150610916826108d5565b602082019050919050565b6000602082019050818103600083015261093a816108fe565b9050919050565b7f4e487b7100000000000000000000000000000000000000000000000000000000600052601160045260246000fd5b600061097b82610736565b915061098683610736565b925082820261099481610736565b915082820484148315176109ab576109aa610941565b5b5092915050565b7f6574686572206572726f722e0000000000000000000000000000000000000000600082015250565b60006109e8600c83610858565b91506109f3826109b2565b602082019050919050565b60006020820190508181036000830152610a17816109db565b9050919050565b6000604082019050610a3360008301856107d5565b610a406020830184610740565b939250505056fea2646970667358221220aadb20c05ffcdca61ad2ed65dc88923710d7ec5b4b453b5fc88fb4a72c39d77064736f6c63430008140033",
    "immutableReferences": {},
    "source": "// SPDX-License-Identifier: MIT\npragma solidity ^0.8.20;\n\nimport \"./QHToken.sol\";\n\ncontract EtherToQHT is Ownable {\n  address private _token; // ERC20 token\n  uint256 public _tokenPrice;\n  address payable _to;\n\n  constructor(address initialOwner) payable Ownable(initialOwner) {}\n\n  function setERC20Contract(address _tokenAddress) public onlyOwner {\n    _token = _tokenAddress;\n  }\n\n  function setERC20Price(uint256 _price) public onlyOwner {\n    _tokenPrice = _price;\n  }\n\n  function setTeamWallet(address payable _teamWallet) public onlyOwner {\n    _to = _teamWallet;\n  }\n\n  function etherToERC20(uint256 _amount) external payable {\n    require(_token != address(0), \"erc20 contract error.\");\n    require(_tokenPrice != 0, \"token price error.\");\n    require(msg.value == _amount * _tokenPrice, \"ether error.\");\n    _to.transfer(msg.value); //  \n    QHToken(_token).mint(msg.sender, _amount * 10 ** 18);\n  }\n}\n",
    "sourcePath": "/Users/ironkey/ironkey-caller/contracts/EtherToQHT.sol",
    "compiler": {
        "name": "solc",
        "version": "0.8.20+commit.a1b79de6.Emscripten.clang"
    },
    "schemaVersion": "3.4.16",
    "updatedAt": "2023-12-28T01:16:19.334Z",
    "devdoc": {
        "errors": {
            "OwnableInvalidOwner(address)": [
                {
                    "details": "The owner is not a valid owner account. (eg. `address(0)`)"
                }
            ],
            "OwnableUnauthorizedAccount(address)": [
                {
                    "details": "The caller account is not authorized to perform an operation."
                }
            ]
        },
        "kind": "dev",
        "methods": {
            "owner()": {
                "details": "Returns the address of the current owner."
            },
            "renounceOwnership()": {
                "details": "Leaves the contract without owner. It will not be possible to call `onlyOwner` functions. Can only be called by the current owner. NOTE: Renouncing ownership will leave the contract without an owner, thereby disabling any functionality that is only available to the owner."
            },
            "transferOwnership(address)": {
                "details": "Transfers ownership of the contract to a new account (`newOwner`). Can only be called by the current owner."
            }
        },
        "version": 1
    },
    "userdoc": {
        "kind": "user",
        "methods": {},
        "version": 1
    }
}